{
  "address": "0x6B92Cad76E5EC0d3b43E5B287248b6Cd98A00cD5",
  "abi": [
    {
      "inputs": [
        {
          "internalType": "address",
          "name": "_VRFCoordinator",
          "type": "address"
        },
        {
          "internalType": "address",
          "name": "_LinkToken",
          "type": "address"
        },
        {
          "internalType": "bytes32",
          "name": "_keyHash",
          "type": "bytes32"
        },
        {
          "internalType": "uint256",
          "name": "_fee",
          "type": "uint256"
        }
      ],
      "stateMutability": "nonpayable",
      "type": "constructor"
    },
    {
      "anonymous": false,
      "inputs": [
        {
          "indexed": true,
          "internalType": "address",
          "name": "owner",
          "type": "address"
        },
        {
          "indexed": true,
          "internalType": "address",
          "name": "approved",
          "type": "address"
        },
        {
          "indexed": true,
          "internalType": "uint256",
          "name": "tokenId",
          "type": "uint256"
        }
      ],
      "name": "Approval",
      "type": "event"
    },
    {
      "anonymous": false,
      "inputs": [
        {
          "indexed": true,
          "internalType": "address",
          "name": "owner",
          "type": "address"
        },
        {
          "indexed": true,
          "internalType": "address",
          "name": "operator",
          "type": "address"
        },
        {
          "indexed": false,
          "internalType": "bool",
          "name": "approved",
          "type": "bool"
        }
      ],
      "name": "ApprovalForAll",
      "type": "event"
    },
    {
      "anonymous": false,
      "inputs": [
        {
          "indexed": true,
          "internalType": "uint256",
          "name": "tokenId",
          "type": "uint256"
        },
        {
          "indexed": false,
          "internalType": "string",
          "name": "tokenURI",
          "type": "string"
        }
      ],
      "name": "CreatedRandomSVG",
      "type": "event"
    },
    {
      "anonymous": false,
      "inputs": [
        {
          "indexed": true,
          "internalType": "uint256",
          "name": "tokenId",
          "type": "uint256"
        },
        {
          "indexed": false,
          "internalType": "uint256",
          "name": "randomNumber",
          "type": "uint256"
        }
      ],
      "name": "CreatedUnfinishedRandomSVG",
      "type": "event"
    },
    {
      "anonymous": false,
      "inputs": [
        {
          "indexed": true,
          "internalType": "address",
          "name": "from",
          "type": "address"
        },
        {
          "indexed": true,
          "internalType": "address",
          "name": "to",
          "type": "address"
        },
        {
          "indexed": true,
          "internalType": "uint256",
          "name": "tokenId",
          "type": "uint256"
        }
      ],
      "name": "Transfer",
      "type": "event"
    },
    {
      "anonymous": false,
      "inputs": [
        {
          "indexed": true,
          "internalType": "bytes32",
          "name": "requestId",
          "type": "bytes32"
        },
        {
          "indexed": true,
          "internalType": "uint256",
          "name": "tokenId",
          "type": "uint256"
        }
      ],
      "name": "requestedRandomSVG",
      "type": "event"
    },
    {
      "inputs": [
        {
          "internalType": "address",
          "name": "to",
          "type": "address"
        },
        {
          "internalType": "uint256",
          "name": "tokenId",
          "type": "uint256"
        }
      ],
      "name": "approve",
      "outputs": [],
      "stateMutability": "nonpayable",
      "type": "function"
    },
    {
      "inputs": [
        {
          "internalType": "address",
          "name": "owner",
          "type": "address"
        }
      ],
      "name": "balanceOf",
      "outputs": [
        {
          "internalType": "uint256",
          "name": "",
          "type": "uint256"
        }
      ],
      "stateMutability": "view",
      "type": "function"
    },
    {
      "inputs": [
        {
          "internalType": "uint256",
          "name": "",
          "type": "uint256"
        }
      ],
      "name": "colors",
      "outputs": [
        {
          "internalType": "string",
          "name": "",
          "type": "string"
        }
      ],
      "stateMutability": "view",
      "type": "function"
    },
    {
      "inputs": [],
      "name": "create",
      "outputs": [
        {
          "internalType": "bytes32",
          "name": "requestId",
          "type": "bytes32"
        }
      ],
      "stateMutability": "nonpayable",
      "type": "function"
    },
    {
      "inputs": [],
      "name": "fee",
      "outputs": [
        {
          "internalType": "uint256",
          "name": "",
          "type": "uint256"
        }
      ],
      "stateMutability": "view",
      "type": "function"
    },
    {
      "inputs": [
        {
          "internalType": "uint256",
          "name": "_tokenId",
          "type": "uint256"
        }
      ],
      "name": "finishMint",
      "outputs": [],
      "stateMutability": "nonpayable",
      "type": "function"
    },
    {
      "inputs": [
        {
          "internalType": "string",
          "name": "_imageURI",
          "type": "string"
        }
      ],
      "name": "formatTokenURI",
      "outputs": [
        {
          "internalType": "string",
          "name": "",
          "type": "string"
        }
      ],
      "stateMutability": "pure",
      "type": "function"
    },
    {
      "inputs": [
        {
          "internalType": "uint256",
          "name": "_randomNumber",
          "type": "uint256"
        }
      ],
      "name": "generatePath",
      "outputs": [
        {
          "internalType": "string",
          "name": "pathSvg",
          "type": "string"
        }
      ],
      "stateMutability": "view",
      "type": "function"
    },
    {
      "inputs": [
        {
          "internalType": "uint256",
          "name": "_randomNumber",
          "type": "uint256"
        }
      ],
      "name": "generatePathCommand",
      "outputs": [
        {
          "internalType": "string",
          "name": "pathCommand",
          "type": "string"
        }
      ],
      "stateMutability": "view",
      "type": "function"
    },
    {
      "inputs": [
        {
          "internalType": "uint256",
          "name": "_randomNumber",
          "type": "uint256"
        }
      ],
      "name": "generateSVG",
      "outputs": [
        {
          "internalType": "string",
          "name": "finalSvg",
          "type": "string"
        }
      ],
      "stateMutability": "view",
      "type": "function"
    },
    {
      "inputs": [
        {
          "internalType": "uint256",
          "name": "tokenId",
          "type": "uint256"
        }
      ],
      "name": "getApproved",
      "outputs": [
        {
          "internalType": "address",
          "name": "",
          "type": "address"
        }
      ],
      "stateMutability": "view",
      "type": "function"
    },
    {
      "inputs": [
        {
          "internalType": "address",
          "name": "owner",
          "type": "address"
        },
        {
          "internalType": "address",
          "name": "operator",
          "type": "address"
        }
      ],
      "name": "isApprovedForAll",
      "outputs": [
        {
          "internalType": "bool",
          "name": "",
          "type": "bool"
        }
      ],
      "stateMutability": "view",
      "type": "function"
    },
    {
      "inputs": [],
      "name": "keyHash",
      "outputs": [
        {
          "internalType": "bytes32",
          "name": "",
          "type": "bytes32"
        }
      ],
      "stateMutability": "view",
      "type": "function"
    },
    {
      "inputs": [],
      "name": "maxNumberOfPathCommands",
      "outputs": [
        {
          "internalType": "uint256",
          "name": "",
          "type": "uint256"
        }
      ],
      "stateMutability": "view",
      "type": "function"
    },
    {
      "inputs": [],
      "name": "maxNumberOfPaths",
      "outputs": [
        {
          "internalType": "uint256",
          "name": "",
          "type": "uint256"
        }
      ],
      "stateMutability": "view",
      "type": "function"
    },
    {
      "inputs": [],
      "name": "name",
      "outputs": [
        {
          "internalType": "string",
          "name": "",
          "type": "string"
        }
      ],
      "stateMutability": "view",
      "type": "function"
    },
    {
      "inputs": [
        {
          "internalType": "uint256",
          "name": "tokenId",
          "type": "uint256"
        }
      ],
      "name": "ownerOf",
      "outputs": [
        {
          "internalType": "address",
          "name": "",
          "type": "address"
        }
      ],
      "stateMutability": "view",
      "type": "function"
    },
    {
      "inputs": [
        {
          "internalType": "uint256",
          "name": "",
          "type": "uint256"
        }
      ],
      "name": "pathCommands",
      "outputs": [
        {
          "internalType": "string",
          "name": "",
          "type": "string"
        }
      ],
      "stateMutability": "view",
      "type": "function"
    },
    {
      "inputs": [
        {
          "internalType": "bytes32",
          "name": "requestId",
          "type": "bytes32"
        },
        {
          "internalType": "uint256",
          "name": "randomness",
          "type": "uint256"
        }
      ],
      "name": "rawFulfillRandomness",
      "outputs": [],
      "stateMutability": "nonpayable",
      "type": "function"
    },
    {
      "inputs": [
        {
          "internalType": "bytes32",
          "name": "",
          "type": "bytes32"
        }
      ],
      "name": "requestIdToSender",
      "outputs": [
        {
          "internalType": "address",
          "name": "",
          "type": "address"
        }
      ],
      "stateMutability": "view",
      "type": "function"
    },
    {
      "inputs": [
        {
          "internalType": "bytes32",
          "name": "",
          "type": "bytes32"
        }
      ],
      "name": "requestIdToTokenId",
      "outputs": [
        {
          "internalType": "uint256",
          "name": "",
          "type": "uint256"
        }
      ],
      "stateMutability": "view",
      "type": "function"
    },
    {
      "inputs": [
        {
          "internalType": "address",
          "name": "from",
          "type": "address"
        },
        {
          "internalType": "address",
          "name": "to",
          "type": "address"
        },
        {
          "internalType": "uint256",
          "name": "tokenId",
          "type": "uint256"
        }
      ],
      "name": "safeTransferFrom",
      "outputs": [],
      "stateMutability": "nonpayable",
      "type": "function"
    },
    {
      "inputs": [
        {
          "internalType": "address",
          "name": "from",
          "type": "address"
        },
        {
          "internalType": "address",
          "name": "to",
          "type": "address"
        },
        {
          "internalType": "uint256",
          "name": "tokenId",
          "type": "uint256"
        },
        {
          "internalType": "bytes",
          "name": "_data",
          "type": "bytes"
        }
      ],
      "name": "safeTransferFrom",
      "outputs": [],
      "stateMutability": "nonpayable",
      "type": "function"
    },
    {
      "inputs": [
        {
          "internalType": "address",
          "name": "operator",
          "type": "address"
        },
        {
          "internalType": "bool",
          "name": "approved",
          "type": "bool"
        }
      ],
      "name": "setApprovalForAll",
      "outputs": [],
      "stateMutability": "nonpayable",
      "type": "function"
    },
    {
      "inputs": [],
      "name": "size",
      "outputs": [
        {
          "internalType": "uint256",
          "name": "",
          "type": "uint256"
        }
      ],
      "stateMutability": "view",
      "type": "function"
    },
    {
      "inputs": [
        {
          "internalType": "bytes4",
          "name": "interfaceId",
          "type": "bytes4"
        }
      ],
      "name": "supportsInterface",
      "outputs": [
        {
          "internalType": "bool",
          "name": "",
          "type": "bool"
        }
      ],
      "stateMutability": "view",
      "type": "function"
    },
    {
      "inputs": [
        {
          "internalType": "string",
          "name": "_svg",
          "type": "string"
        }
      ],
      "name": "svgToImageURI",
      "outputs": [
        {
          "internalType": "string",
          "name": "",
          "type": "string"
        }
      ],
      "stateMutability": "pure",
      "type": "function"
    },
    {
      "inputs": [],
      "name": "symbol",
      "outputs": [
        {
          "internalType": "string",
          "name": "",
          "type": "string"
        }
      ],
      "stateMutability": "view",
      "type": "function"
    },
    {
      "inputs": [],
      "name": "tokenCounter",
      "outputs": [
        {
          "internalType": "uint256",
          "name": "",
          "type": "uint256"
        }
      ],
      "stateMutability": "view",
      "type": "function"
    },
    {
      "inputs": [
        {
          "internalType": "uint256",
          "name": "",
          "type": "uint256"
        }
      ],
      "name": "tokenIdToRandomNumber",
      "outputs": [
        {
          "internalType": "uint256",
          "name": "",
          "type": "uint256"
        }
      ],
      "stateMutability": "view",
      "type": "function"
    },
    {
      "inputs": [
        {
          "internalType": "uint256",
          "name": "tokenId",
          "type": "uint256"
        }
      ],
      "name": "tokenURI",
      "outputs": [
        {
          "internalType": "string",
          "name": "",
          "type": "string"
        }
      ],
      "stateMutability": "view",
      "type": "function"
    },
    {
      "inputs": [
        {
          "internalType": "address",
          "name": "from",
          "type": "address"
        },
        {
          "internalType": "address",
          "name": "to",
          "type": "address"
        },
        {
          "internalType": "uint256",
          "name": "tokenId",
          "type": "uint256"
        }
      ],
      "name": "transferFrom",
      "outputs": [],
      "stateMutability": "nonpayable",
      "type": "function"
    }
  ],
  "transactionHash": "0xdcfda5beb82ff270d337f5e6d5a7f9c2fb0ce6c9771345587e5c36245409605f",
  "args": [
    "0xb3dCcb4Cf7a26f6cf6B120Cf5A73875B7BBc655B",
    "0x01BE23585060835E02B77ef475b0Cc51aA1e0709",
    "0x2ed0feb3e7fd2022120aa84fab1945545a9f2ffc9076fd6156fa96eaff4c1311",
    "100000000000000000"
  ],
  "solcInputHash": "396e406c43a933f0dd1679e963ea80e5",
  "bytecode": "0x60c06040523480156200001157600080fd5b5060405162004f6238038062004f628339818101604052810190620000379190620005c3565b83836040518060400160405280600981526020017f52616e646f6d53564700000000000000000000000000000000000000000000008152506040518060400160405280600581526020017f72734e46540000000000000000000000000000000000000000000000000000008152508160009080519060200190620000bd92919062000392565b508060019080519060200190620000d692919062000392565b5050508173ffffffffffffffffffffffffffffffffffffffff1660a08173ffffffffffffffffffffffffffffffffffffffff1660601b815250508073ffffffffffffffffffffffffffffffffffffffff1660808173ffffffffffffffffffffffffffffffffffffffff1660601b81525050505080600981905550816008819055506000600a81905550600a600b819055506005600c819055506101f4600d8190555060405180604001604052806040518060400160405280600181526020017f4d0000000000000000000000000000000000000000000000000000000000000081525081526020016040518060400160405280600181526020017f4c00000000000000000000000000000000000000000000000000000000000000815250815250600e9060026200020992919062000423565b506040518060c001604052806040518060400160405280600381526020017f726564000000000000000000000000000000000000000000000000000000000081525081526020016040518060400160405280600481526020017f626c75650000000000000000000000000000000000000000000000000000000081525081526020016040518060400160405280600581526020017f677265656e00000000000000000000000000000000000000000000000000000081525081526020016040518060400160405280600681526020017f79656c6c6f77000000000000000000000000000000000000000000000000000081525081526020016040518060400160405280600581526020017f626c61636b00000000000000000000000000000000000000000000000000000081525081526020016040518060400160405280600581526020017f7768697465000000000000000000000000000000000000000000000000000000815250815250600f906006620003879291906200048a565b50505050506200072a565b828054620003a09062000677565b90600052602060002090601f016020900481019282620003c4576000855562000410565b82601f10620003df57805160ff191683800117855562000410565b8280016001018555821562000410579182015b828111156200040f578251825591602001919060010190620003f2565b5b5090506200041f9190620004f1565b5090565b82805482825590600052602060002090810192821562000477579160200282015b82811115620004765782518290805190602001906200046592919062000392565b509160200191906001019062000444565b5b50905062000486919062000510565b5090565b828054828255906000526020600020908101928215620004de579160200282015b82811115620004dd578251829080519060200190620004cc92919062000392565b5091602001919060010190620004ab565b5b509050620004ed919062000510565b5090565b5b808211156200050c576000816000905550600101620004f2565b5090565b5b808211156200053457600081816200052a919062000538565b5060010162000511565b5090565b508054620005469062000677565b6000825580601f106200055a57506200057b565b601f0160209004906000526020600020908101906200057a9190620004f1565b5b50565b6000815190506200058f81620006dc565b92915050565b600081519050620005a681620006f6565b92915050565b600081519050620005bd8162000710565b92915050565b60008060008060808587031215620005da57600080fd5b6000620005ea878288016200057e565b9450506020620005fd878288016200057e565b9350506040620006108782880162000595565b92505060606200062387828801620005ac565b91505092959194509250565b60006200063c826200064d565b9050919050565b6000819050919050565b600073ffffffffffffffffffffffffffffffffffffffff82169050919050565b6000819050919050565b600060028204905060018216806200069057607f821691505b60208210811415620006a757620006a6620006ad565b5b50919050565b7f4e487b7100000000000000000000000000000000000000000000000000000000600052602260045260246000fd5b620006e7816200062f565b8114620006f357600080fd5b50565b620007018162000643565b81146200070d57600080fd5b50565b6200071b816200066d565b81146200072757600080fd5b50565b60805160601c60a05160601c6148056200075d6000396000818161119b01526125640152600061252801526148056000f3fe608060405234801561001057600080fd5b50600436106101f05760003560e01c806371aee1931161010f578063bd11f69d116100a2578063d082e38111610071578063d082e3811461063d578063ddca3f431461065b578063e985e9c514610679578063efc81a8c146106a9576101f0565b8063bd11f69d1461058f578063c21bf36f146105bf578063c68b49d1146105dd578063c87b56dd1461060d576101f0565b806395d89b41116100de57806395d89b41146105095780639c1cd79514610527578063a22cb46514610557578063b88d4fde14610573576101f0565b806371aee1931461046f57806394985ddd1461049f578063949d225d146104bb578063955968d4146104d9576101f0565b806333af598911610187578063624194c711610156578063624194c7146103c35780636352211e146103df5780636dcee4ca1461040f57806370a082311461043f576101f0565b806333af59891461033b57806342842e0e1461036b57806348e896ab1461038757806361728f39146103a5576101f0565b8063219c0eee116101c3578063219c0eee1461028f57806322881f88146102bf57806323b872dd146102ef57806330d871c61461030b576101f0565b806301ffc9a7146101f557806306fdde0314610225578063081812fc14610243578063095ea7b314610273575b600080fd5b61020f600480360381019061020a91906130d3565b6106c7565b60405161021c9190613f18565b60405180910390f35b61022d6107a9565b60405161023a9190613fbc565b60405180910390f35b61025d60048036038101906102589190613166565b61083b565b60405161026a9190613e73565b60405180910390f35b61028d60048036038101906102889190613009565b6108c0565b005b6102a960048036038101906102a4919061306e565b6109d8565b6040516102b69190613e73565b60405180910390f35b6102d960048036038101906102d4919061306e565b610a0b565b6040516102e6919061425e565b60405180910390f35b61030960048036038101906103049190612f03565b610a23565b005b61032560048036038101906103209190613125565b610a83565b6040516103329190613fbc565b60405180910390f35b61035560048036038101906103509190613166565b610b1c565b6040516103629190613fbc565b60405180910390f35b61038560048036038101906103809190612f03565b610d0e565b005b61038f610d2e565b60405161039c919061425e565b60405180910390f35b6103ad610d34565b6040516103ba9190613f33565b60405180910390f35b6103dd60048036038101906103d89190613166565b610d3a565b005b6103f960048036038101906103f49190613166565b610ea9565b6040516104069190613e73565b60405180910390f35b61042960048036038101906104249190613166565b610f5b565b6040516104369190613fbc565b60405180910390f35b61045960048036038101906104549190612e9e565b611054565b604051610466919061425e565b60405180910390f35b61048960048036038101906104849190613125565b61110c565b6040516104969190613fbc565b60405180910390f35b6104b960048036038101906104b49190613097565b611199565b005b6104c3611235565b6040516104d0919061425e565b60405180910390f35b6104f360048036038101906104ee9190613166565b61123b565b6040516105009190613fbc565b60405180910390f35b6105116112e7565b60405161051e9190613fbc565b60405180910390f35b610541600480360381019061053c9190613166565b611379565b60405161054e919061425e565b60405180910390f35b610571600480360381019061056c9190612fcd565b611391565b005b61058d60048036038101906105889190612f52565b611512565b005b6105a960048036038101906105a49190613166565b611574565b6040516105b69190613fbc565b60405180910390f35b6105c7611620565b6040516105d4919061425e565b60405180910390f35b6105f760048036038101906105f29190613166565b611626565b6040516106049190613fbc565b60405180910390f35b61062760048036038101906106229190613166565b6117d9565b6040516106349190613fbc565b60405180910390f35b61064561192b565b604051610652919061425e565b60405180910390f35b610663611931565b604051610670919061425e565b60405180910390f35b610693600480360381019061068e9190612ec7565b611937565b6040516106a09190613f18565b60405180910390f35b6106b16119cb565b6040516106be9190613f33565b60405180910390f35b60007f80ac58cd000000000000000000000000000000000000000000000000000000007bffffffffffffffffffffffffffffffffffffffffffffffffffffffff1916827bffffffffffffffffffffffffffffffffffffffffffffffffffffffff1916148061079257507f5b5e139f000000000000000000000000000000000000000000000000000000007bffffffffffffffffffffffffffffffffffffffffffffffffffffffff1916827bffffffffffffffffffffffffffffffffffffffffffffffffffffffff1916145b806107a257506107a182611a95565b5b9050919050565b6060600080546107b89061458f565b80601f01602080910402602001604051908101604052809291908181526020018280546107e49061458f565b80156108315780601f1061080657610100808354040283529160200191610831565b820191906000526020600020905b81548152906001019060200180831161081457829003601f168201915b5050505050905090565b600061084682611aff565b610885576040517f08c379a000000000000000000000000000000000000000000000000000000000815260040161087c9061413e565b60405180910390fd5b6004600083815260200190815260200160002060009054906101000a900473ffffffffffffffffffffffffffffffffffffffff169050919050565b60006108cb82610ea9565b90508073ffffffffffffffffffffffffffffffffffffffff168373ffffffffffffffffffffffffffffffffffffffff16141561093c576040517f08c379a0000000000000000000000000000000000000000000000000000000008152600401610933906141be565b60405180910390fd5b8073ffffffffffffffffffffffffffffffffffffffff1661095b611b6b565b73ffffffffffffffffffffffffffffffffffffffff16148061098a575061098981610984611b6b565b611937565b5b6109c9576040517f08c379a00000000000000000000000000000000000000000000000000000000081526004016109c09061407e565b60405180910390fd5b6109d38383611b73565b505050565b60106020528060005260406000206000915054906101000a900473ffffffffffffffffffffffffffffffffffffffff1681565b60116020528060005260406000206000915090505481565b610a34610a2e611b6b565b82611c2c565b610a73576040517f08c379a0000000000000000000000000000000000000000000000000000000008152600401610a6a9061421e565b60405180910390fd5b610a7e838383611d0a565b505050565b606060006040518060400160405280601a81526020017f646174613a696d6167652f7376672b786d6c3b6261736536342c00000000000081525090506000610ae984604051602001610ad59190613d02565b604051602081830303815290604052611f66565b905060008282604051602001610b00929190613d19565b6040516020818303038152906040529050809350505050919050565b606060006001600c5484610b30919061461e565b610b3a9190614376565b90506040518060400160405280600981526020017f3c7061746820643d270000000000000000000000000000000000000000000000815250915060005b81811015610c025760008482600d54610b909190614376565b604051602001610ba1929190614279565b6040516020818303038152906040528051906020012060001c90506000610bc782611626565b90508481604051602001610bdc929190613d19565b604051602081830303815290604052945050508080610bfa906145c1565b915050610b77565b506000600f808054905085610c17919061461e565b81548110610c4e577f4e487b7100000000000000000000000000000000000000000000000000000000600052603260045260246000fd5b906000526020600020018054610c639061458f565b80601f0160208091040260200160405190810160405280929190818152602001828054610c8f9061458f565b8015610cdc5780601f10610cb157610100808354040283529160200191610cdc565b820191906000526020600020905b815481529060010190602001808311610cbf57829003601f168201915b505050505090508281604051602001610cf6929190613d3d565b60405160208183030381529060405292505050919050565b610d2983838360405180602001604052806000815250611512565b505050565b600c5481565b60085481565b6000610d45826117d9565b511115610d87576040517f08c379a0000000000000000000000000000000000000000000000000000000008152600401610d7e906141de565b60405180910390fd5b80600a5411610dcb576040517f08c379a0000000000000000000000000000000000000000000000000000000008152600401610dc2906141fe565b60405180910390fd5b6000601260008381526020019081526020016000205411610e21576040517f08c379a0000000000000000000000000000000000000000000000000000000008152600401610e189061423e565b60405180910390fd5b6000601260008381526020019081526020016000205490506000610e4482610f5b565b90506000610e5182610a83565b90506000610e5e8261110c565b9050610e6a8582612111565b847f15a6487b7915a7116ce2a61d43b17e9b47484b1931f3c79f2f3d139b307b389384604051610e9a9190613fbc565b60405180910390a25050505050565b6000806002600084815260200190815260200160002060009054906101000a900473ffffffffffffffffffffffffffffffffffffffff169050600073ffffffffffffffffffffffffffffffffffffffff168173ffffffffffffffffffffffffffffffffffffffff161415610f52576040517f08c379a0000000000000000000000000000000000000000000000000000000008152600401610f49906140be565b60405180910390fd5b80915050919050565b606060006001600b548416610f709190614376565b9050610f7d600d54612185565b610f88600d54612185565b604051602001610f99929190613e2e565b604051602081830303815290604052915060005b8181101561102b5760008482604051602001610fca929190614279565b6040516020818303038152906040528051906020012060001c90506000610ff082610b1c565b90508481604051602001611005929190613d19565b604051602081830303815290604052945050508080611023906145c1565b915050610fad565b508160405160200161103d9190613dbe565b604051602081830303815290604052915050919050565b60008073ffffffffffffffffffffffffffffffffffffffff168273ffffffffffffffffffffffffffffffffffffffff1614156110c5576040517f08c379a00000000000000000000000000000000000000000000000000000000081526004016110bc9061409e565b60405180910390fd5b600360008373ffffffffffffffffffffffffffffffffffffffff1673ffffffffffffffffffffffffffffffffffffffff168152602001908152602001600020549050919050565b606060006040518060400160405280601d81526020017f646174613a6170706c69636174696f6e2f6a736f6e3b6261736536342c0000008152509050806111718460405160200161115d9190613de0565b604051602081830303815290604052611f66565b604051602001611182929190613d19565b604051602081830303815290604052915050919050565b7f000000000000000000000000000000000000000000000000000000000000000073ffffffffffffffffffffffffffffffffffffffff163373ffffffffffffffffffffffffffffffffffffffff1614611227576040517f08c379a000000000000000000000000000000000000000000000000000000000815260040161121e9061419e565b60405180910390fd5b611231828261235a565b5050565b600d5481565b600e818154811061124b57600080fd5b9060005260206000200160009150905080546112669061458f565b80601f01602080910402602001604051908101604052809291908181526020018280546112929061458f565b80156112df5780601f106112b4576101008083540402835291602001916112df565b820191906000526020600020905b8154815290600101906020018083116112c257829003601f168201915b505050505081565b6060600180546112f69061458f565b80601f01602080910402602001604051908101604052809291908181526020018280546113229061458f565b801561136f5780601f106113445761010080835404028352916020019161136f565b820191906000526020600020905b81548152906001019060200180831161135257829003601f168201915b5050505050905090565b60126020528060005260406000206000915090505481565b611399611b6b565b73ffffffffffffffffffffffffffffffffffffffff168273ffffffffffffffffffffffffffffffffffffffff161415611407576040517f08c379a00000000000000000000000000000000000000000000000000000000081526004016113fe9061403e565b60405180910390fd5b8060056000611414611b6b565b73ffffffffffffffffffffffffffffffffffffffff1673ffffffffffffffffffffffffffffffffffffffff16815260200190815260200160002060008473ffffffffffffffffffffffffffffffffffffffff1673ffffffffffffffffffffffffffffffffffffffff16815260200190815260200160002060006101000a81548160ff0219169083151502179055508173ffffffffffffffffffffffffffffffffffffffff166114c1611b6b565b73ffffffffffffffffffffffffffffffffffffffff167f17307eab39ab6107e8899845ad3d59bd9653f200f220920489ca2b5937696c31836040516115069190613f18565b60405180910390a35050565b61152361151d611b6b565b83611c2c565b611562576040517f08c379a00000000000000000000000000000000000000000000000000000000081526004016115599061421e565b60405180910390fd5b61156e8484848461240a565b50505050565b600f818154811061158457600080fd5b90600052602060002001600091509050805461159f9061458f565b80601f01602080910402602001604051908101604052809291908181526020018280546115cb9061458f565b80156116185780601f106115ed57610100808354040283529160200191611618565b820191906000526020600020905b8154815290600101906020018083116115fb57829003601f168201915b505050505081565b600b5481565b6060600e80805490508361163a919061461e565b81548110611671577f4e487b7100000000000000000000000000000000000000000000000000000000600052603260045260246000fd5b9060005260206000200180546116869061458f565b80601f01602080910402602001604051908101604052809291908181526020018280546116b29061458f565b80156116ff5780601f106116d4576101008083540402835291602001916116ff565b820191906000526020600020905b8154815290600101906020018083116116e257829003601f168201915b505050505090506000600d54836002600d5461171b9190614434565b60405160200161172c929190614279565b6040516020818303038152906040528051906020012060001c61174f919061461e565b90506000600d54846003600d546117669190614434565b604051602001611777929190614279565b6040516020818303038152906040528051906020012060001c61179a919061461e565b9050826117a683612185565b6117af83612185565b6040516020016117c193929190613d77565b60405160208183030381529060405292505050919050565b60606117e482611aff565b611823576040517f08c379a000000000000000000000000000000000000000000000000000000000815260040161181a9061411e565b60405180910390fd5b60006006600084815260200190815260200160002080546118439061458f565b80601f016020809104026020016040519081016040528092919081815260200182805461186f9061458f565b80156118bc5780601f10611891576101008083540402835291602001916118bc565b820191906000526020600020905b81548152906001019060200180831161189f57829003601f168201915b5050505050905060006118cd612466565b90506000815114156118e3578192505050611926565b600082511115611918578082604051602001611900929190613d19565b60405160208183030381529060405292505050611926565b6119218461247d565b925050505b919050565b600a5481565b60095481565b6000600560008473ffffffffffffffffffffffffffffffffffffffff1673ffffffffffffffffffffffffffffffffffffffff16815260200190815260200160002060008373ffffffffffffffffffffffffffffffffffffffff1673ffffffffffffffffffffffffffffffffffffffff16815260200190815260200160002060009054906101000a900460ff16905092915050565b60006119db600854600954612524565b9050336010600083815260200190815260200160002060006101000a81548173ffffffffffffffffffffffffffffffffffffffff021916908373ffffffffffffffffffffffffffffffffffffffff1602179055506000600a5490508060116000848152602001908152602001600020819055506001600a54611a5d9190614376565b600a8190555080827fb97343f1f2afc4959f818046ccae28fd7b05fcd2b7a7dc651cbb52a096cae03560405160405180910390a35090565b60007f01ffc9a7000000000000000000000000000000000000000000000000000000007bffffffffffffffffffffffffffffffffffffffffffffffffffffffff1916827bffffffffffffffffffffffffffffffffffffffffffffffffffffffff1916149050919050565b60008073ffffffffffffffffffffffffffffffffffffffff166002600084815260200190815260200160002060009054906101000a900473ffffffffffffffffffffffffffffffffffffffff1673ffffffffffffffffffffffffffffffffffffffff1614159050919050565b600033905090565b816004600083815260200190815260200160002060006101000a81548173ffffffffffffffffffffffffffffffffffffffff021916908373ffffffffffffffffffffffffffffffffffffffff160217905550808273ffffffffffffffffffffffffffffffffffffffff16611be683610ea9565b73ffffffffffffffffffffffffffffffffffffffff167f8c5be1e5ebec7d5bd14f71427d1e84f3dd0314c0f7b2291e5b200ac8c7c3b92560405160405180910390a45050565b6000611c3782611aff565b611c76576040517f08c379a0000000000000000000000000000000000000000000000000000000008152600401611c6d9061405e565b60405180910390fd5b6000611c8183610ea9565b90508073ffffffffffffffffffffffffffffffffffffffff168473ffffffffffffffffffffffffffffffffffffffff161480611cf057508373ffffffffffffffffffffffffffffffffffffffff16611cd88461083b565b73ffffffffffffffffffffffffffffffffffffffff16145b80611d015750611d008185611937565b5b91505092915050565b8273ffffffffffffffffffffffffffffffffffffffff16611d2a82610ea9565b73ffffffffffffffffffffffffffffffffffffffff1614611d80576040517f08c379a0000000000000000000000000000000000000000000000000000000008152600401611d779061415e565b60405180910390fd5b600073ffffffffffffffffffffffffffffffffffffffff168273ffffffffffffffffffffffffffffffffffffffff161415611df0576040517f08c379a0000000000000000000000000000000000000000000000000000000008152600401611de79061401e565b60405180910390fd5b611dfb838383612686565b611e06600082611b73565b6001600360008573ffffffffffffffffffffffffffffffffffffffff1673ffffffffffffffffffffffffffffffffffffffff1681526020019081526020016000206000828254611e56919061448e565b925050819055506001600360008473ffffffffffffffffffffffffffffffffffffffff1673ffffffffffffffffffffffffffffffffffffffff1681526020019081526020016000206000828254611ead9190614376565b92505081905550816002600083815260200190815260200160002060006101000a81548173ffffffffffffffffffffffffffffffffffffffff021916908373ffffffffffffffffffffffffffffffffffffffff160217905550808273ffffffffffffffffffffffffffffffffffffffff168473ffffffffffffffffffffffffffffffffffffffff167fddf252ad1be2c89b69c2b068fc378daa952ba7f163c4a11628f55a4df523b3ef60405160405180910390a4505050565b6060600082511415611f895760405180602001604052806000815250905061210c565b60006040518060600160405280604081526020016147906040913990506000600360028551611fb89190614376565b611fc29190614403565b6004611fce9190614434565b90506000602082611fdf9190614376565b67ffffffffffffffff81111561201e577f4e487b7100000000000000000000000000000000000000000000000000000000600052604160045260246000fd5b6040519080825280601f01601f1916602001820160405280156120505781602001600182028036833780820191505090505b509050818152600183018586518101602084015b818310156120cb576003830192508251603f8160121c1685015160f81b8252600182019150603f81600c1c1685015160f81b8252600182019150603f8160061c1685015160f81b8252600182019150603f811685015160f81b825260018201915050612064565b6003895106600181146120e557600281146120f557612100565b613d3d60f01b6002830352612100565b603d60f81b60018303525b50505050508093505050505b919050565b61211a82611aff565b612159576040517f08c379a0000000000000000000000000000000000000000000000000000000008152600401612150906140de565b60405180910390fd5b80600660008481526020019081526020016000209080519060200190612180929190612c98565b505050565b606060008214156121cd576040518060400160405280600181526020017f30000000000000000000000000000000000000000000000000000000000000008152509050612355565b600082905060005b600082146121ff5780806121e8906145c1565b915050600a826121f89190614403565b91506121d5565b60008167ffffffffffffffff811115612241577f4e487b7100000000000000000000000000000000000000000000000000000000600052604160045260246000fd5b6040519080825280601f01601f1916602001820160405280156122735781602001600182028036833780820191505090505b50905060008290505b6000861461234d57600181612291919061448e565b90506000600a80886122a39190614403565b6122ad9190614434565b876122b8919061448e565b60306122c491906143cc565b905060008160f81b905080848481518110612308577f4e487b7100000000000000000000000000000000000000000000000000000000600052603260045260246000fd5b60200101907effffffffffffffffffffffffffffffffffffffffffffffffffffffffffffff1916908160001a905350600a886123449190614403565b9750505061227c565b819450505050505b919050565b60006010600084815260200190815260200160002060009054906101000a900473ffffffffffffffffffffffffffffffffffffffff1690506000601160008581526020019081526020016000205490506123b4828261268b565b826012600083815260200190815260200160002081905550807faad5362ce528ed941024b95d4c18dfd49b8503e1f586a5c353631d98c2af41b7846040516123fc919061425e565b60405180910390a250505050565b612415848484611d0a565b612421848484846126a9565b612460576040517f08c379a000000000000000000000000000000000000000000000000000000000815260040161245790613fde565b60405180910390fd5b50505050565b606060405180602001604052806000815250905090565b606061248882611aff565b6124c7576040517f08c379a00000000000000000000000000000000000000000000000000000000081526004016124be9061417e565b60405180910390fd5b60006124d1612466565b905060008151116124f1576040518060200160405280600081525061251c565b806124fb84612840565b60405160200161250c929190613d19565b6040516020818303038152906040525b915050919050565b60007f000000000000000000000000000000000000000000000000000000000000000073ffffffffffffffffffffffffffffffffffffffff16634000aea07f000000000000000000000000000000000000000000000000000000000000000084866000604051602001612598929190613f4e565b6040516020818303038152906040526040518463ffffffff1660e01b81526004016125c593929190613eda565b602060405180830381600087803b1580156125df57600080fd5b505af11580156125f3573d6000803e3d6000fd5b505050506040513d601f19601f820116820180604052508101906126179190613045565b50600061263a8460003060076000898152602001908152602001600020546129ed565b90506001600760008681526020019081526020016000205461265c9190614376565b600760008681526020019081526020016000208190555061267d8482612a29565b91505092915050565b505050565b6126a5828260405180602001604052806000815250612a5c565b5050565b60006126ca8473ffffffffffffffffffffffffffffffffffffffff16612ab7565b15612833578373ffffffffffffffffffffffffffffffffffffffff1663150b7a026126f3611b6b565b8786866040518563ffffffff1660e01b81526004016127159493929190613e8e565b602060405180830381600087803b15801561272f57600080fd5b505af192505050801561276057506040513d601f19601f8201168201806040525081019061275d91906130fc565b60015b6127e3573d8060008114612790576040519150601f19603f3d011682016040523d82523d6000602084013e612795565b606091505b506000815114156127db576040517f08c379a00000000000000000000000000000000000000000000000000000000081526004016127d290613fde565b60405180910390fd5b805181602001fd5b63150b7a0260e01b7bffffffffffffffffffffffffffffffffffffffffffffffffffffffff1916817bffffffffffffffffffffffffffffffffffffffffffffffffffffffff191614915050612838565b600190505b949350505050565b60606000821415612888576040518060400160405280600181526020017f300000000000000000000000000000000000000000000000000000000000000081525090506129e8565b600082905060005b600082146128ba5780806128a3906145c1565b915050600a826128b39190614403565b9150612890565b60008167ffffffffffffffff8111156128fc577f4e487b7100000000000000000000000000000000000000000000000000000000600052604160045260246000fd5b6040519080825280601f01601f19166020018201604052801561292e5781602001600182028036833780820191505090505b5090505b600085146129e157600182612947919061448e565b9150600a85612956919061461e565b60306129629190614376565b60f81b81838151811061299e577f4e487b7100000000000000000000000000000000000000000000000000000000600052603260045260246000fd5b60200101907effffffffffffffffffffffffffffffffffffffffffffffffffffffffffffff1916908160001a905350600a856129da9190614403565b9450612932565b8093505050505b919050565b600084848484604051602001612a069493929190613f77565b6040516020818303038152906040528051906020012060001c9050949350505050565b60008282604051602001612a3e929190613cd6565b60405160208183030381529060405280519060200120905092915050565b612a668383612aca565b612a7360008484846126a9565b612ab2576040517f08c379a0000000000000000000000000000000000000000000000000000000008152600401612aa990613fde565b60405180910390fd5b505050565b600080823b905060008111915050919050565b600073ffffffffffffffffffffffffffffffffffffffff168273ffffffffffffffffffffffffffffffffffffffff161415612b3a576040517f08c379a0000000000000000000000000000000000000000000000000000000008152600401612b31906140fe565b60405180910390fd5b612b4381611aff565b15612b83576040517f08c379a0000000000000000000000000000000000000000000000000000000008152600401612b7a90613ffe565b60405180910390fd5b612b8f60008383612686565b6001600360008473ffffffffffffffffffffffffffffffffffffffff1673ffffffffffffffffffffffffffffffffffffffff1681526020019081526020016000206000828254612bdf9190614376565b92505081905550816002600083815260200190815260200160002060006101000a81548173ffffffffffffffffffffffffffffffffffffffff021916908373ffffffffffffffffffffffffffffffffffffffff160217905550808273ffffffffffffffffffffffffffffffffffffffff16600073ffffffffffffffffffffffffffffffffffffffff167fddf252ad1be2c89b69c2b068fc378daa952ba7f163c4a11628f55a4df523b3ef60405160405180910390a45050565b828054612ca49061458f565b90600052602060002090601f016020900481019282612cc65760008555612d0d565b82601f10612cdf57805160ff1916838001178555612d0d565b82800160010185558215612d0d579182015b82811115612d0c578251825591602001919060010190612cf1565b5b509050612d1a9190612d1e565b5090565b5b80821115612d37576000816000905550600101612d1f565b5090565b6000612d4e612d49846142d3565b6142a2565b905082815260208101848484011115612d6657600080fd5b612d7184828561454d565b509392505050565b6000612d8c612d8784614303565b6142a2565b905082815260208101848484011115612da457600080fd5b612daf84828561454d565b509392505050565b600081359050612dc68161471c565b92915050565b600081359050612ddb81614733565b92915050565b600081519050612df081614733565b92915050565b600081359050612e058161474a565b92915050565b600081359050612e1a81614761565b92915050565b600081519050612e2f81614761565b92915050565b600082601f830112612e4657600080fd5b8135612e56848260208601612d3b565b91505092915050565b600082601f830112612e7057600080fd5b8135612e80848260208601612d79565b91505092915050565b600081359050612e9881614778565b92915050565b600060208284031215612eb057600080fd5b6000612ebe84828501612db7565b91505092915050565b60008060408385031215612eda57600080fd5b6000612ee885828601612db7565b9250506020612ef985828601612db7565b9150509250929050565b600080600060608486031215612f1857600080fd5b6000612f2686828701612db7565b9350506020612f3786828701612db7565b9250506040612f4886828701612e89565b9150509250925092565b60008060008060808587031215612f6857600080fd5b6000612f7687828801612db7565b9450506020612f8787828801612db7565b9350506040612f9887828801612e89565b925050606085013567ffffffffffffffff811115612fb557600080fd5b612fc187828801612e35565b91505092959194509250565b60008060408385031215612fe057600080fd5b6000612fee85828601612db7565b9250506020612fff85828601612dcc565b9150509250929050565b6000806040838503121561301c57600080fd5b600061302a85828601612db7565b925050602061303b85828601612e89565b9150509250929050565b60006020828403121561305757600080fd5b600061306584828501612de1565b91505092915050565b60006020828403121561308057600080fd5b600061308e84828501612df6565b91505092915050565b600080604083850312156130aa57600080fd5b60006130b885828601612df6565b92505060206130c985828601612e89565b9150509250929050565b6000602082840312156130e557600080fd5b60006130f384828501612e0b565b91505092915050565b60006020828403121561310e57600080fd5b600061311c84828501612e20565b91505092915050565b60006020828403121561313757600080fd5b600082013567ffffffffffffffff81111561315157600080fd5b61315d84828501612e5f565b91505092915050565b60006020828403121561317857600080fd5b600061318684828501612e89565b91505092915050565b613198816144c2565b82525050565b6131a7816144d4565b82525050565b6131b6816144e0565b82525050565b6131cd6131c8826144e0565b61460a565b82525050565b60006131de82614333565b6131e88185614349565b93506131f881856020860161455c565b6132018161470b565b840191505092915050565b60006132178261433e565b613221818561435a565b935061323181856020860161455c565b61323a8161470b565b840191505092915050565b60006132508261433e565b61325a818561436b565b935061326a81856020860161455c565b80840191505092915050565b600061328360328361435a565b91507f4552433732313a207472616e7366657220746f206e6f6e20455243373231526560008301527f63656976657220696d706c656d656e74657200000000000000000000000000006020830152604082019050919050565b60006132e9601c8361435a565b91507f4552433732313a20746f6b656e20616c7265616479206d696e746564000000006000830152602082019050919050565b600061332960148361436b565b91507f7b226e616d65223a2022535647204e4654222c200000000000000000000000006000830152601482019050919050565b600061336960248361435a565b91507f4552433732313a207472616e7366657220746f20746865207a65726f2061646460008301527f72657373000000000000000000000000000000000000000000000000000000006020830152604082019050919050565b60006133cf60198361435a565b91507f4552433732313a20617070726f766520746f2063616c6c6572000000000000006000830152602082019050919050565b600061340f602c8361435a565b91507f4552433732313a206f70657261746f7220717565727920666f72206e6f6e657860008301527f697374656e7420746f6b656e00000000000000000000000000000000000000006020830152604082019050919050565b6000613475601d8361436b565b91507f272066696c6c3d277472616e73706172656e7427207374726f6b653d270000006000830152601d82019050919050565b60006134b560018361436b565b91507f20000000000000000000000000000000000000000000000000000000000000006000830152600182019050919050565b60006134f560038361436b565b91507f272f3e00000000000000000000000000000000000000000000000000000000006000830152600382019050919050565b600061353560388361435a565b91507f4552433732313a20617070726f76652063616c6c6572206973206e6f74206f7760008301527f6e6572206e6f7220617070726f76656420666f7220616c6c00000000000000006020830152604082019050919050565b600061359b602a8361435a565b91507f4552433732313a2062616c616e636520717565727920666f7220746865207a6560008301527f726f2061646472657373000000000000000000000000000000000000000000006020830152604082019050919050565b600061360160298361435a565b91507f4552433732313a206f776e657220717565727920666f72206e6f6e657869737460008301527f656e7420746f6b656e00000000000000000000000000000000000000000000006020830152604082019050919050565b6000613667602e8361435a565b91507f45524337323155524953746f726167653a2055524920736574206f66206e6f6e60008301527f6578697374656e7420746f6b656e0000000000000000000000000000000000006020830152604082019050919050565b60006136cd60098361436b565b91507f22696d616765223a2200000000000000000000000000000000000000000000006000830152600982019050919050565b600061370d60028361436b565b91507f227d0000000000000000000000000000000000000000000000000000000000006000830152600282019050919050565b600061374d60208361435a565b91507f4552433732313a206d696e7420746f20746865207a65726f20616464726573736000830152602082019050919050565b600061378d60318361435a565b91507f45524337323155524953746f726167653a2055524920717565727920666f722060008301527f6e6f6e6578697374656e7420746f6b656e0000000000000000000000000000006020830152604082019050919050565b60006137f3602c8361435a565b91507f4552433732313a20617070726f76656420717565727920666f72206e6f6e657860008301527f697374656e7420746f6b656e00000000000000000000000000000000000000006020830152604082019050919050565b600061385960298361435a565b91507f4552433732313a207472616e73666572206f6620746f6b656e2074686174206960008301527f73206e6f74206f776e00000000000000000000000000000000000000000000006020830152604082019050919050565b60006138bf60308361436b565b91507f3c73766720786d6c6e733d27687474703a2f2f7777772e77332e6f72672f323060008301527f30302f73766727206865696768743d27000000000000000000000000000000006020830152603082019050919050565b6000613925602f8361435a565b91507f4552433732314d657461646174613a2055524920717565727920666f72206e6f60008301527f6e6578697374656e7420746f6b656e00000000000000000000000000000000006020830152604082019050919050565b600061398b601f8361435a565b91507f4f6e6c7920565246436f6f7264696e61746f722063616e2066756c66696c6c006000830152602082019050919050565b60006139cb60128361436b565b91507f2261747472696275746573223a2022222c2000000000000000000000000000006000830152601282019050919050565b6000613a0b60278361436b565b91507f226465736372697074696f6e223a2022416e204e4654206261736564206f6e2060008301527f53564721222c20000000000000000000000000000000000000000000000000006020830152602782019050919050565b6000613a7160218361435a565b91507f4552433732313a20617070726f76616c20746f2063757272656e74206f776e6560008301527f72000000000000000000000000000000000000000000000000000000000000006020830152604082019050919050565b6000613ad7601c8361435a565b91507f746f6b656e55524920697320616c726561647920616c6c2073657421000000006000830152602082019050919050565b6000613b1760208361435a565b91507f546f6b656e494420686173206e6f74206265656e206d696e74656420796574216000830152602082019050919050565b6000613b5760318361435a565b91507f4552433732313a207472616e736665722063616c6c6572206973206e6f74206f60008301527f776e6572206e6f7220617070726f7665640000000000000000000000000000006020830152604082019050919050565b6000613bbd60028361436b565b91507f273e0000000000000000000000000000000000000000000000000000000000006000830152600282019050919050565b6000613bfd60068361436b565b91507f3c2f7376673e00000000000000000000000000000000000000000000000000006000830152600682019050919050565b6000613c3d601e8361435a565b91507f4e65656420746f207761697420666f7220436861696e6c696e6b2056524600006000830152602082019050919050565b6000613c7d60098361436b565b91507f272077696474683d2700000000000000000000000000000000000000000000006000830152600982019050919050565b613cb981614536565b82525050565b613cd0613ccb82614536565b614614565b82525050565b6000613ce282856131bc565b602082019150613cf28284613cbf565b6020820191508190509392505050565b6000613d0e8284613245565b915081905092915050565b6000613d258285613245565b9150613d318284613245565b91508190509392505050565b6000613d498285613245565b9150613d5482613468565b9150613d608284613245565b9150613d6b826134e8565b91508190509392505050565b6000613d838286613245565b9150613d8e826134a8565b9150613d9a8285613245565b9150613da5826134a8565b9150613db18284613245565b9150819050949350505050565b6000613dca8284613245565b9150613dd582613bf0565b915081905092915050565b6000613deb8261331c565b9150613df6826139fe565b9150613e01826139be565b9150613e0c826136c0565b9150613e188284613245565b9150613e2382613700565b915081905092915050565b6000613e39826138b2565b9150613e458285613245565b9150613e5082613c70565b9150613e5c8284613245565b9150613e6782613bb0565b91508190509392505050565b6000602082019050613e88600083018461318f565b92915050565b6000608082019050613ea3600083018761318f565b613eb0602083018661318f565b613ebd6040830185613cb0565b8181036060830152613ecf81846131d3565b905095945050505050565b6000606082019050613eef600083018661318f565b613efc6020830185613cb0565b8181036040830152613f0e81846131d3565b9050949350505050565b6000602082019050613f2d600083018461319e565b92915050565b6000602082019050613f4860008301846131ad565b92915050565b6000604082019050613f6360008301856131ad565b613f706020830184613cb0565b9392505050565b6000608082019050613f8c60008301876131ad565b613f996020830186613cb0565b613fa6604083018561318f565b613fb36060830184613cb0565b95945050505050565b60006020820190508181036000830152613fd6818461320c565b905092915050565b60006020820190508181036000830152613ff781613276565b9050919050565b60006020820190508181036000830152614017816132dc565b9050919050565b600060208201905081810360008301526140378161335c565b9050919050565b60006020820190508181036000830152614057816133c2565b9050919050565b6000602082019050818103600083015261407781613402565b9050919050565b6000602082019050818103600083015261409781613528565b9050919050565b600060208201905081810360008301526140b78161358e565b9050919050565b600060208201905081810360008301526140d7816135f4565b9050919050565b600060208201905081810360008301526140f78161365a565b9050919050565b6000602082019050818103600083015261411781613740565b9050919050565b6000602082019050818103600083015261413781613780565b9050919050565b60006020820190508181036000830152614157816137e6565b9050919050565b600060208201905081810360008301526141778161384c565b9050919050565b6000602082019050818103600083015261419781613918565b9050919050565b600060208201905081810360008301526141b78161397e565b9050919050565b600060208201905081810360008301526141d781613a64565b9050919050565b600060208201905081810360008301526141f781613aca565b9050919050565b6000602082019050818103600083015261421781613b0a565b9050919050565b6000602082019050818103600083015261423781613b4a565b9050919050565b6000602082019050818103600083015261425781613c30565b9050919050565b60006020820190506142736000830184613cb0565b92915050565b600060408201905061428e6000830185613cb0565b61429b6020830184613cb0565b9392505050565b6000604051905081810181811067ffffffffffffffff821117156142c9576142c86146dc565b5b8060405250919050565b600067ffffffffffffffff8211156142ee576142ed6146dc565b5b601f19601f8301169050602081019050919050565b600067ffffffffffffffff82111561431e5761431d6146dc565b5b601f19601f8301169050602081019050919050565b600081519050919050565b600081519050919050565b600082825260208201905092915050565b600082825260208201905092915050565b600081905092915050565b600061438182614536565b915061438c83614536565b9250827fffffffffffffffffffffffffffffffffffffffffffffffffffffffffffffffff038211156143c1576143c061464f565b5b828201905092915050565b60006143d782614540565b91506143e283614540565b92508260ff038211156143f8576143f761464f565b5b828201905092915050565b600061440e82614536565b915061441983614536565b9250826144295761442861467e565b5b828204905092915050565b600061443f82614536565b915061444a83614536565b9250817fffffffffffffffffffffffffffffffffffffffffffffffffffffffffffffffff04831182151516156144835761448261464f565b5b828202905092915050565b600061449982614536565b91506144a483614536565b9250828210156144b7576144b661464f565b5b828203905092915050565b60006144cd82614516565b9050919050565b60008115159050919050565b6000819050919050565b60007fffffffff0000000000000000000000000000000000000000000000000000000082169050919050565b600073ffffffffffffffffffffffffffffffffffffffff82169050919050565b6000819050919050565b600060ff82169050919050565b82818337600083830152505050565b60005b8381101561457a57808201518184015260208101905061455f565b83811115614589576000848401525b50505050565b600060028204905060018216806145a757607f821691505b602082108114156145bb576145ba6146ad565b5b50919050565b60006145cc82614536565b91507fffffffffffffffffffffffffffffffffffffffffffffffffffffffffffffffff8214156145ff576145fe61464f565b5b600182019050919050565b6000819050919050565b6000819050919050565b600061462982614536565b915061463483614536565b9250826146445761464361467e565b5b828206905092915050565b7f4e487b7100000000000000000000000000000000000000000000000000000000600052601160045260246000fd5b7f4e487b7100000000000000000000000000000000000000000000000000000000600052601260045260246000fd5b7f4e487b7100000000000000000000000000000000000000000000000000000000600052602260045260246000fd5b7f4e487b7100000000000000000000000000000000000000000000000000000000600052604160045260246000fd5b6000601f19601f8301169050919050565b614725816144c2565b811461473057600080fd5b50565b61473c816144d4565b811461474757600080fd5b50565b614753816144e0565b811461475e57600080fd5b50565b61476a816144ea565b811461477557600080fd5b50565b61478181614536565b811461478c57600080fd5b5056fe4142434445464748494a4b4c4d4e4f505152535455565758595a6162636465666768696a6b6c6d6e6f707172737475767778797a303132333435363738392b2fa26469706673582212201c2caea80adfede6935da8c5e740d308f1abc69adf93254826fd806c73fb8d4e64736f6c63430008000033",
  "devdoc": {
    "kind": "dev",
    "methods": {
      "approve(address,uint256)": {
        "details": "See {IERC721-approve}."
      },
      "balanceOf(address)": {
        "details": "See {IERC721-balanceOf}."
      },
      "getApproved(uint256)": {
        "details": "See {IERC721-getApproved}."
      },
      "isApprovedForAll(address,address)": {
        "details": "See {IERC721-isApprovedForAll}."
      },
      "name()": {
        "details": "See {IERC721Metadata-name}."
      },
      "ownerOf(uint256)": {
        "details": "See {IERC721-ownerOf}."
      },
      "safeTransferFrom(address,address,uint256)": {
        "details": "See {IERC721-safeTransferFrom}."
      },
      "safeTransferFrom(address,address,uint256,bytes)": {
        "details": "See {IERC721-safeTransferFrom}."
      },
      "setApprovalForAll(address,bool)": {
        "details": "See {IERC721-setApprovalForAll}."
      },
      "supportsInterface(bytes4)": {
        "details": "See {IERC165-supportsInterface}."
      },
      "symbol()": {
        "details": "See {IERC721Metadata-symbol}."
      },
      "tokenURI(uint256)": {
        "details": "See {IERC721Metadata-tokenURI}."
      },
      "transferFrom(address,address,uint256)": {
        "details": "See {IERC721-transferFrom}."
      }
    },
    "version": 1
  },
  "userdoc": {
    "kind": "user",
    "methods": {},
    "version": 1
  },
  "storageLayout": {
    "storage": [
      {
        "astId": 291,
        "contract": "contracts/RandomSVG.sol:RandomSVG",
        "label": "_name",
        "offset": 0,
        "slot": "0",
        "type": "t_string_storage"
      },
      {
        "astId": 293,
        "contract": "contracts/RandomSVG.sol:RandomSVG",
        "label": "_symbol",
        "offset": 0,
        "slot": "1",
        "type": "t_string_storage"
      },
      {
        "astId": 297,
        "contract": "contracts/RandomSVG.sol:RandomSVG",
        "label": "_owners",
        "offset": 0,
        "slot": "2",
        "type": "t_mapping(t_uint256,t_address)"
      },
      {
        "astId": 301,
        "contract": "contracts/RandomSVG.sol:RandomSVG",
        "label": "_balances",
        "offset": 0,
        "slot": "3",
        "type": "t_mapping(t_address,t_uint256)"
      },
      {
        "astId": 305,
        "contract": "contracts/RandomSVG.sol:RandomSVG",
        "label": "_tokenApprovals",
        "offset": 0,
        "slot": "4",
        "type": "t_mapping(t_uint256,t_address)"
      },
      {
        "astId": 311,
        "contract": "contracts/RandomSVG.sol:RandomSVG",
        "label": "_operatorApprovals",
        "offset": 0,
        "slot": "5",
        "type": "t_mapping(t_address,t_mapping(t_address,t_bool))"
      },
      {
        "astId": 1228,
        "contract": "contracts/RandomSVG.sol:RandomSVG",
        "label": "_tokenURIs",
        "offset": 0,
        "slot": "6",
        "type": "t_mapping(t_uint256,t_string_storage)"
      },
      {
        "astId": 79,
        "contract": "contracts/RandomSVG.sol:RandomSVG",
        "label": "nonces",
        "offset": 0,
        "slot": "7",
        "type": "t_mapping(t_bytes32,t_uint256)"
      },
      {
        "astId": 1989,
        "contract": "contracts/RandomSVG.sol:RandomSVG",
        "label": "keyHash",
        "offset": 0,
        "slot": "8",
        "type": "t_bytes32"
      },
      {
        "astId": 1991,
        "contract": "contracts/RandomSVG.sol:RandomSVG",
        "label": "fee",
        "offset": 0,
        "slot": "9",
        "type": "t_uint256"
      },
      {
        "astId": 1993,
        "contract": "contracts/RandomSVG.sol:RandomSVG",
        "label": "tokenCounter",
        "offset": 0,
        "slot": "10",
        "type": "t_uint256"
      },
      {
        "astId": 1995,
        "contract": "contracts/RandomSVG.sol:RandomSVG",
        "label": "maxNumberOfPaths",
        "offset": 0,
        "slot": "11",
        "type": "t_uint256"
      },
      {
        "astId": 1997,
        "contract": "contracts/RandomSVG.sol:RandomSVG",
        "label": "maxNumberOfPathCommands",
        "offset": 0,
        "slot": "12",
        "type": "t_uint256"
      },
      {
        "astId": 1999,
        "contract": "contracts/RandomSVG.sol:RandomSVG",
        "label": "size",
        "offset": 0,
        "slot": "13",
        "type": "t_uint256"
      },
      {
        "astId": 2002,
        "contract": "contracts/RandomSVG.sol:RandomSVG",
        "label": "pathCommands",
        "offset": 0,
        "slot": "14",
        "type": "t_array(t_string_storage)dyn_storage"
      },
      {
        "astId": 2005,
        "contract": "contracts/RandomSVG.sol:RandomSVG",
        "label": "colors",
        "offset": 0,
        "slot": "15",
        "type": "t_array(t_string_storage)dyn_storage"
      },
      {
        "astId": 2009,
        "contract": "contracts/RandomSVG.sol:RandomSVG",
        "label": "requestIdToSender",
        "offset": 0,
        "slot": "16",
        "type": "t_mapping(t_bytes32,t_address)"
      },
      {
        "astId": 2013,
        "contract": "contracts/RandomSVG.sol:RandomSVG",
        "label": "requestIdToTokenId",
        "offset": 0,
        "slot": "17",
        "type": "t_mapping(t_bytes32,t_uint256)"
      },
      {
        "astId": 2017,
        "contract": "contracts/RandomSVG.sol:RandomSVG",
        "label": "tokenIdToRandomNumber",
        "offset": 0,
        "slot": "18",
        "type": "t_mapping(t_uint256,t_uint256)"
      }
    ],
    "types": {
      "t_address": {
        "encoding": "inplace",
        "label": "address",
        "numberOfBytes": "20"
      },
      "t_array(t_string_storage)dyn_storage": {
        "base": "t_string_storage",
        "encoding": "dynamic_array",
        "label": "string[]",
        "numberOfBytes": "32"
      },
      "t_bool": {
        "encoding": "inplace",
        "label": "bool",
        "numberOfBytes": "1"
      },
      "t_bytes32": {
        "encoding": "inplace",
        "label": "bytes32",
        "numberOfBytes": "32"
      },
      "t_mapping(t_address,t_bool)": {
        "encoding": "mapping",
        "key": "t_address",
        "label": "mapping(address => bool)",
        "numberOfBytes": "32",
        "value": "t_bool"
      },
      "t_mapping(t_address,t_mapping(t_address,t_bool))": {
        "encoding": "mapping",
        "key": "t_address",
        "label": "mapping(address => mapping(address => bool))",
        "numberOfBytes": "32",
        "value": "t_mapping(t_address,t_bool)"
      },
      "t_mapping(t_address,t_uint256)": {
        "encoding": "mapping",
        "key": "t_address",
        "label": "mapping(address => uint256)",
        "numberOfBytes": "32",
        "value": "t_uint256"
      },
      "t_mapping(t_bytes32,t_address)": {
        "encoding": "mapping",
        "key": "t_bytes32",
        "label": "mapping(bytes32 => address)",
        "numberOfBytes": "32",
        "value": "t_address"
      },
      "t_mapping(t_bytes32,t_uint256)": {
        "encoding": "mapping",
        "key": "t_bytes32",
        "label": "mapping(bytes32 => uint256)",
        "numberOfBytes": "32",
        "value": "t_uint256"
      },
      "t_mapping(t_uint256,t_address)": {
        "encoding": "mapping",
        "key": "t_uint256",
        "label": "mapping(uint256 => address)",
        "numberOfBytes": "32",
        "value": "t_address"
      },
      "t_mapping(t_uint256,t_string_storage)": {
        "encoding": "mapping",
        "key": "t_uint256",
        "label": "mapping(uint256 => string)",
        "numberOfBytes": "32",
        "value": "t_string_storage"
      },
      "t_mapping(t_uint256,t_uint256)": {
        "encoding": "mapping",
        "key": "t_uint256",
        "label": "mapping(uint256 => uint256)",
        "numberOfBytes": "32",
        "value": "t_uint256"
      },
      "t_string_storage": {
        "encoding": "bytes",
        "label": "string",
        "numberOfBytes": "32"
      },
      "t_uint256": {
        "encoding": "inplace",
        "label": "uint256",
        "numberOfBytes": "32"
      }
    }
  }
}